{
    "_format": "hh-sol-artifact-1",
    "contractName": "nodeHandler",
    "sourceName": "contracts/INodeManager.sol",
    "abi": [
        {
            "inputs": [
                {
                    "internalType": "uint8",
                    "name": "_rewardPerNode",
                    "type": "uint8"
                },
                {
                    "internalType": "uint256",
                    "name": "_minPrice",
                    "type": "uint256"
                }
            ],
            "stateMutability": "nonpayable",
            "type": "constructor"
        },
        {
            "anonymous": false,
            "inputs": [
                {
                    "indexed": true,
                    "internalType": "uint256",
                    "name": "amount",
                    "type": "uint256"
                },
                {
                    "indexed": true,
                    "internalType": "address",
                    "name": "account",
                    "type": "address"
                },
                {
                    "indexed": true,
                    "internalType": "uint256",
                    "name": "blockTime",
                    "type": "uint256"
                }
            ],
            "name": "NodeCreated",
            "type": "event"
        },
        {
            "anonymous": false,
            "inputs": [
                {
                    "indexed": true,
                    "internalType": "address",
                    "name": "previousOwner",
                    "type": "address"
                },
                {
                    "indexed": true,
                    "internalType": "address",
                    "name": "newOwner",
                    "type": "address"
                }
            ],
            "name": "OwnershipTransferred",
            "type": "event"
        },
        {
            "anonymous": false,
            "inputs": [
                {
                    "indexed": false,
                    "internalType": "address",
                    "name": "account",
                    "type": "address"
                }
            ],
            "name": "Paused",
            "type": "event"
        },
        {
            "anonymous": false,
            "inputs": [
                {
                    "indexed": false,
                    "internalType": "address",
                    "name": "account",
                    "type": "address"
                }
            ],
            "name": "Unpaused",
            "type": "event"
        },
        {
            "inputs": [
                {
                    "internalType": "uint256",
                    "name": "index",
                    "type": "uint256"
                }
            ],
            "name": "burn",
            "outputs": [],
            "stateMutability": "nonpayable",
            "type": "function"
        },
        {
            "inputs": [
                {
                    "internalType": "address",
                    "name": "account",
                    "type": "address"
                }
            ],
            "name": "cashoutAllNodesRewards",
            "outputs": [],
            "stateMutability": "nonpayable",
            "type": "function"
        },
        {
            "inputs": [
                {
                    "internalType": "address",
                    "name": "account",
                    "type": "address"
                },
                {
                    "internalType": "uint256",
                    "name": "_creationTime",
                    "type": "uint256"
                }
            ],
            "name": "cashoutNodeReward",
            "outputs": [],
            "stateMutability": "nonpayable",
            "type": "function"
        },
        {
            "inputs": [
                {
                    "internalType": "address",
                    "name": "account",
                    "type": "address"
                },
                {
                    "internalType": "uint256",
                    "name": "_creationTime",
                    "type": "uint256"
                },
                {
                    "internalType": "uint256",
                    "name": "rewardAmount_",
                    "type": "uint256"
                }
            ],
            "name": "compoundNodeReward",
            "outputs": [],
            "stateMutability": "nonpayable",
            "type": "function"
        },
        {
            "inputs": [
                {
                    "internalType": "address",
                    "name": "account",
                    "type": "address"
                },
                {
                    "internalType": "string",
                    "name": "nodeName",
                    "type": "string"
                },
                {
                    "internalType": "uint256",
                    "name": "amount_",
                    "type": "uint256"
                },
                {
                    "internalType": "bool",
                    "name": "_presaleActive",
                    "type": "bool"
                }
            ],
            "name": "createNode",
            "outputs": [],
            "stateMutability": "nonpayable",
            "type": "function"
        },
        {
            "inputs": [
                {
                    "internalType": "address",
                    "name": "account",
                    "type": "address"
                }
            ],
            "name": "getAllNodes",
            "outputs": [
                {
                    "components": [
                        {
                            "internalType": "string",
                            "name": "name",
                            "type": "string"
                        },
                        {
                            "internalType": "uint256",
                            "name": "creationTime",
                            "type": "uint256"
                        },
                        {
                            "internalType": "uint256",
                            "name": "lastClaimTime",
                            "type": "uint256"
                        },
                        {
                            "internalType": "uint256",
                            "name": "amount",
                            "type": "uint256"
                        }
                    ],
                    "internalType": "struct nodeHandler.NodeEntity[]",
                    "name": "",
                    "type": "tuple[]"
                }
            ],
            "stateMutability": "view",
            "type": "function"
        },
        {
            "inputs": [
                {
                    "internalType": "address",
                    "name": "account",
                    "type": "address"
                }
            ],
            "name": "getAllNodesRewards",
            "outputs": [
                {
                    "internalType": "uint256",
                    "name": "",
                    "type": "uint256"
                }
            ],
            "stateMutability": "view",
            "type": "function"
        },
        {
            "inputs": [
                {
                    "internalType": "address",
                    "name": "account",
                    "type": "address"
                }
            ],
            "name": "getIndexOfKey",
            "outputs": [
                {
                    "internalType": "int256",
                    "name": "",
                    "type": "int256"
                }
            ],
            "stateMutability": "view",
            "type": "function"
        },
        {
            "inputs": [],
            "name": "getMinPrice",
            "outputs": [
                {
                    "internalType": "uint256",
                    "name": "",
                    "type": "uint256"
                }
            ],
            "stateMutability": "view",
            "type": "function"
        },
        {
            "inputs": [
                {
                    "internalType": "address",
                    "name": "account",
                    "type": "address"
                }
            ],
            "name": "getNodeNumberOf",
            "outputs": [
                {
                    "internalType": "uint256",
                    "name": "",
                    "type": "uint256"
                }
            ],
            "stateMutability": "view",
            "type": "function"
        },
        {
            "inputs": [
                {
                    "internalType": "address",
                    "name": "account",
                    "type": "address"
                },
                {
                    "internalType": "uint256",
                    "name": "_creationTime",
                    "type": "uint256"
                }
            ],
            "name": "getNodeReward",
            "outputs": [
                {
                    "internalType": "uint256",
                    "name": "",
                    "type": "uint256"
                }
            ],
            "stateMutability": "view",
            "type": "function"
        },
        {
            "inputs": [
                {
                    "internalType": "address",
                    "name": "account",
                    "type": "address"
                }
            ],
            "name": "getNodesCreationTime",
            "outputs": [
                {
                    "internalType": "string",
                    "name": "",
                    "type": "string"
                }
            ],
            "stateMutability": "view",
            "type": "function"
        },
        {
            "inputs": [
                {
                    "internalType": "address",
                    "name": "account",
                    "type": "address"
                }
            ],
            "name": "getNodesLastClaimTime",
            "outputs": [
                {
                    "internalType": "string",
                    "name": "",
                    "type": "string"
                }
            ],
            "stateMutability": "view",
            "type": "function"
        },
        {
            "inputs": [
                {
                    "internalType": "address",
                    "name": "account",
                    "type": "address"
                }
            ],
            "name": "getNodesNames",
            "outputs": [
                {
                    "internalType": "string",
                    "name": "",
                    "type": "string"
                }
            ],
            "stateMutability": "view",
            "type": "function"
        },
        {
            "inputs": [
                {
                    "internalType": "address",
                    "name": "account",
                    "type": "address"
                }
            ],
            "name": "isNodeOwner",
            "outputs": [
                {
                    "internalType": "bool",
                    "name": "",
                    "type": "bool"
                }
            ],
            "stateMutability": "view",
            "type": "function"
        },
        {
            "inputs": [],
            "name": "minPrice",
            "outputs": [
                {
                    "internalType": "uint256",
                    "name": "",
                    "type": "uint256"
                }
            ],
            "stateMutability": "view",
            "type": "function"
        },
        {
            "inputs": [],
            "name": "owner",
            "outputs": [
                {
                    "internalType": "address",
                    "name": "",
                    "type": "address"
                }
            ],
            "stateMutability": "view",
            "type": "function"
        },
        {
            "inputs": [],
            "name": "paused",
            "outputs": [
                {
                    "internalType": "bool",
                    "name": "",
                    "type": "bool"
                }
            ],
            "stateMutability": "view",
            "type": "function"
        },
        {
            "inputs": [],
            "name": "presale",
            "outputs": [
                {
                    "internalType": "address",
                    "name": "",
                    "type": "address"
                }
            ],
            "stateMutability": "view",
            "type": "function"
        },
        {
            "inputs": [],
            "name": "renounceOwnership",
            "outputs": [],
            "stateMutability": "nonpayable",
            "type": "function"
        },
        {
            "inputs": [],
            "name": "rewardPerNode",
            "outputs": [
                {
                    "internalType": "uint8",
                    "name": "",
                    "type": "uint8"
                }
            ],
            "stateMutability": "view",
            "type": "function"
        },
        {
            "inputs": [],
            "name": "token",
            "outputs": [
                {
                    "internalType": "address",
                    "name": "",
                    "type": "address"
                }
            ],
            "stateMutability": "view",
            "type": "function"
        },
        {
            "inputs": [],
            "name": "totalClaimed",
            "outputs": [
                {
                    "internalType": "uint256",
                    "name": "",
                    "type": "uint256"
                }
            ],
            "stateMutability": "view",
            "type": "function"
        },
        {
            "inputs": [],
            "name": "totalNodesCreated",
            "outputs": [
                {
                    "internalType": "uint256",
                    "name": "",
                    "type": "uint256"
                }
            ],
            "stateMutability": "view",
            "type": "function"
        },
        {
            "inputs": [],
            "name": "totalStaked",
            "outputs": [
                {
                    "internalType": "uint256",
                    "name": "",
                    "type": "uint256"
                }
            ],
            "stateMutability": "view",
            "type": "function"
        },
        {
            "inputs": [
                {
                    "internalType": "address",
                    "name": "newOwner",
                    "type": "address"
                }
            ],
            "name": "transferOwnership",
            "outputs": [],
            "stateMutability": "nonpayable",
            "type": "function"
        },
        {
            "inputs": [
                {
                    "internalType": "uint8[]",
                    "name": "newVal",
                    "type": "uint8[]"
                }
            ],
            "name": "updateBoostMultipliers",
            "outputs": [],
            "stateMutability": "nonpayable",
            "type": "function"
        },
        {
            "inputs": [
                {
                    "internalType": "uint8[]",
                    "name": "newVal",
                    "type": "uint8[]"
                }
            ],
            "name": "updateBoostRequiredDays",
            "outputs": [],
            "stateMutability": "nonpayable",
            "type": "function"
        },
        {
            "inputs": [
                {
                    "internalType": "uint256",
                    "name": "newVal",
                    "type": "uint256"
                }
            ],
            "name": "updateMinPrice",
            "outputs": [],
            "stateMutability": "nonpayable",
            "type": "function"
        },
        {
            "inputs": [
                {
                    "internalType": "address",
                    "name": "_presale",
                    "type": "address"
                }
            ],
            "name": "updatePresale",
            "outputs": [],
            "stateMutability": "nonpayable",
            "type": "function"
        },
        {
            "inputs": [
                {
                    "internalType": "uint8",
                    "name": "newVal",
                    "type": "uint8"
                }
            ],
            "name": "updateReward",
            "outputs": [],
            "stateMutability": "nonpayable",
            "type": "function"
        },
        {
            "inputs": [
                {
                    "internalType": "address",
                    "name": "newToken",
                    "type": "address"
                }
            ],
            "name": "updateToken",
            "outputs": [],
            "stateMutability": "nonpayable",
            "type": "function"
        }
    ],
    "bytecode": "0x608060405260006009556000600a556000600b556040518060600160405280606460ff168152602001606460ff168152602001606460ff16815250600c9060036200004c929190620001ea565b506040518060600160405280600360ff168152602001600760ff168152602001600f60ff16815250600d90600362000086929190620001ea565b503480156200009457600080fd5b5060405162004bdb38038062004bdb8339818101604052810190620000ba9190620002e5565b620000da620000ce6200011e60201b60201c565b6200012660201b60201c565b60008060146101000a81548160ff02191690831515021790555081600760146101000a81548160ff021916908360ff16021790555080600881905550505062000371565b600033905090565b60008060009054906101000a900473ffffffffffffffffffffffffffffffffffffffff169050816000806101000a81548173ffffffffffffffffffffffffffffffffffffffff021916908373ffffffffffffffffffffffffffffffffffffffff1602179055508173ffffffffffffffffffffffffffffffffffffffff168173ffffffffffffffffffffffffffffffffffffffff167f8be0079c531659141344cd1fd0a4f28419497f9722a3daafe3b4186f6b6457e060405160405180910390a35050565b82805482825590600052602060002090601f01602090048101928215620002855791602002820160005b838211156200025457835183826101000a81548160ff021916908360ff160217905550926020019260010160208160000104928301926001030262000214565b8015620002835782816101000a81549060ff021916905560010160208160000104928301926001030262000254565b505b50905062000294919062000298565b5090565b5b80821115620002b357600081600090555060010162000299565b5090565b600081519050620002c8816200033d565b92915050565b600081519050620002df8162000357565b92915050565b60008060408385031215620002f957600080fd5b60006200030985828601620002ce565b92505060206200031c85828601620002b7565b9150509250929050565b6000819050919050565b600060ff82169050919050565b620003488162000326565b81146200035457600080fd5b50565b620003628162000330565b81146200036e57600080fd5b50565b61485a80620003816000396000f3fe608060405234801561001057600080fd5b50600436106101f05760003560e01c8063939c6bfb1161010f578063dec83abf116100a2578063f2fde38b11610071578063f2fde38b146105a3578063f74c9934146105bf578063fc0c546a146105ef578063fdea8e0b1461060d576101f0565b8063dec83abf1461051b578063e31a811614610537578063e45be8eb14610555578063ebb3c67a14610573576101f0565b8063b8527aef116100de578063b8527aef146104a7578063cbd14993146104c5578063d3b0dba9146104e1578063d54ad2a1146104fd576101f0565b8063939c6bfb146103e7578063956de887146104175780639dab00f714610447578063b19197f714610477576101f0565b8063613ff46f116101875780637ad3def2116101565780637ad3def214610373578063817b1cd21461038f57806385cc179e146103ad5780638da5cb5b146103c9576101f0565b8063613ff46f14610313578063626003fd14610331578063630b32201461034d578063715018a614610369576101f0565b806342966c68116101c357806342966c681461028d578063564c8d11146102a95780635c975abb146102d95780635d770b27146102f7576101f0565b80630539fcd1146101f557806315f7aaab146102115780631fae6582146102415780633bcf707b14610271575b600080fd5b61020f600480360381019061020a919061398d565b61062b565b005b61022b600480360381019061022691906137c7565b6106b1565b6040516102389190613e28565b60405180910390f35b61025b600480360381019061025691906137c7565b610748565b6040516102689190613e06565b60405180910390f35b61028b60048036038101906102869190613894565b610896565b005b6102a760048036038101906102a2919061398d565b610b4c565b005b6102c360048036038101906102be91906137c7565b610d57565b6040516102d09190613e43565b60405180910390f35b6102e1610ea2565b6040516102ee9190613e28565b60405180910390f35b610311600480360381019061030c9190613819565b610eb8565b005b61031b611316565b60405161032891906140bf565b60405180910390f35b61034b6004803603810190610346919061391f565b611329565b005b610367600480360381019061036291906137c7565b611401565b005b6103716114c1565b005b61038d600480360381019061038891906137c7565b611549565b005b610397611609565b6040516103a491906140a4565b60405180910390f35b6103c760048036038101906103c291906139df565b61160f565b005b6103d16116a9565b6040516103de9190613deb565b60405180910390f35b61040160048036038101906103fc9190613894565b6116d2565b60405161040e91906140a4565b60405180910390f35b610431600480360381019061042c91906137c7565b6117ca565b60405161043e91906140a4565b60405180910390f35b610461600480360381019061045c91906137c7565b6118f4565b60405161046e9190613e5e565b60405180910390f35b610491600480360381019061048c91906137c7565b611bc8565b60405161049e9190613e5e565b60405180910390f35b6104af611e9c565b6040516104bc91906140a4565b60405180910390f35b6104df60048036038101906104da91906138d0565b611ea2565b005b6104fb60048036038101906104f691906137c7565b612174565b005b61050561244b565b60405161051291906140a4565b60405180910390f35b6105356004803603810190610530919061391f565b612451565b005b61053f612529565b60405161054c91906140a4565b60405180910390f35b61055d612533565b60405161056a91906140a4565b60405180910390f35b61058d600480360381019061058891906137c7565b612539565b60405161059a9190613e5e565b60405180910390f35b6105bd60048036038101906105b891906137c7565b6127fd565b005b6105d960048036038101906105d491906137c7565b6128f5565b6040516105e691906140a4565b60405180910390f35b6105f761298a565b6040516106049190613deb565b60405180910390f35b6106156129b0565b6040516106229190613deb565b60405180910390f35b6106336129d6565b73ffffffffffffffffffffffffffffffffffffffff166106516116a9565b73ffffffffffffffffffffffffffffffffffffffff16146106a7576040517f08c379a000000000000000000000000000000000000000000000000000000000815260040161069e90613f60565b60405180910390fd5b8060088190555050565b600080600173__$ce39e7eba0e8c210ce522c13d692fbaca1$__63732a2ccf9091856040518363ffffffff1660e01b81526004016106f092919061401b565b60206040518083038186803b15801561070857600080fd5b505af415801561071c573d6000803e3d6000fd5b505050506040513d601f19601f8201168201806040525081019061074091906139b6565b119050919050565b6060600560008373ffffffffffffffffffffffffffffffffffffffff1673ffffffffffffffffffffffffffffffffffffffff168152602001908152602001600020805480602002602001604051908101604052809291908181526020016000905b8282101561088b57838290600052602060002090600402016040518060800160405290816000820180546107dc9061438e565b80601f01602080910402602001604051908101604052809291908181526020018280546108089061438e565b80156108555780601f1061082a57610100808354040283529160200191610855565b820191906000526020600020905b81548152906001019060200180831161083857829003601f168201915b505050505081526020016001820154815260200160028201548152602001600382015481525050815260200190600101906107a9565b505050509050919050565b61089e6129d6565b73ffffffffffffffffffffffffffffffffffffffff166108bc6116a9565b73ffffffffffffffffffffffffffffffffffffffff16148061093257506108e16129d6565b73ffffffffffffffffffffffffffffffffffffffff16600760009054906101000a900473ffffffffffffffffffffffffffffffffffffffff1673ffffffffffffffffffffffffffffffffffffffff16145b8061099157506109406129d6565b73ffffffffffffffffffffffffffffffffffffffff16600660009054906101000a900473ffffffffffffffffffffffffffffffffffffffff1673ffffffffffffffffffffffffffffffffffffffff16145b6109d0576040517f08c379a00000000000000000000000000000000000000000000000000000000081526004016109c790613f00565b60405180910390fd5b816109da816106b1565b610a19576040517f08c379a0000000000000000000000000000000000000000000000000000000008152600401610a1090613fc0565b60405180910390fd5b610a21610ea2565b15610a61576040517f08c379a0000000000000000000000000000000000000000000000000000000008152600401610a5890613ee0565b60405180910390fd5b60008211610aa4576040517f08c379a0000000000000000000000000000000000000000000000000000000008152600401610a9b90613ec0565b60405180910390fd5b6000600560008573ffffffffffffffffffffffffffffffffffffffff1673ffffffffffffffffffffffffffffffffffffffff16815260200190815260200160002090506000818054905011610b2e576040517f08c379a0000000000000000000000000000000000000000000000000000000008152600401610b2590613fe0565b60405180910390fd5b6000610b3a82856129de565b90504281600201819055505050505050565b610b546129d6565b73ffffffffffffffffffffffffffffffffffffffff16610b726116a9565b73ffffffffffffffffffffffffffffffffffffffff1614610bc8576040517f08c379a0000000000000000000000000000000000000000000000000000000008152600401610bbf90613f60565b60405180910390fd5b600173__$ce39e7eba0e8c210ce522c13d692fbaca1$__63deb3d89690916040518263ffffffff1660e01b8152600401610c029190614000565b60206040518083038186803b158015610c1a57600080fd5b505af4158015610c2e573d6000803e3d6000fd5b505050506040513d601f19601f82011682018060405250810190610c5291906139b6565b8110610c5d57600080fd5b600173__$ce39e7eba0e8c210ce522c13d692fbaca1$__634c60db9c9091600173__$ce39e7eba0e8c210ce522c13d692fbaca1$__63d1aa9e7e9091866040518363ffffffff1660e01b8152600401610cb792919061407b565b60206040518083038186803b158015610ccf57600080fd5b505af4158015610ce3573d6000803e3d6000fd5b505050506040513d601f19601f82011682018060405250810190610d0791906137f0565b6040518363ffffffff1660e01b8152600401610d2492919061401b565b60006040518083038186803b158015610d3c57600080fd5b505af4158015610d50573d6000803e3d6000fd5b5050505050565b6000610d616129d6565b73ffffffffffffffffffffffffffffffffffffffff16610d7f6116a9565b73ffffffffffffffffffffffffffffffffffffffff1614610dd5576040517f08c379a0000000000000000000000000000000000000000000000000000000008152600401610dcc90613f60565b60405180910390fd5b600073ffffffffffffffffffffffffffffffffffffffff168273ffffffffffffffffffffffffffffffffffffffff161415610e0f57600080fd5b600173__$ce39e7eba0e8c210ce522c13d692fbaca1$__6317e142d19091846040518363ffffffff1660e01b8152600401610e4b92919061401b565b60206040518083038186803b158015610e6357600080fd5b505af4158015610e77573d6000803e3d6000fd5b505050506040513d601f19601f82011682018060405250810190610e9b9190613964565b9050919050565b60008060149054906101000a900460ff16905090565b610ec06129d6565b73ffffffffffffffffffffffffffffffffffffffff16610ede6116a9565b73ffffffffffffffffffffffffffffffffffffffff161480610f545750610f036129d6565b73ffffffffffffffffffffffffffffffffffffffff16600760009054906101000a900473ffffffffffffffffffffffffffffffffffffffff1673ffffffffffffffffffffffffffffffffffffffff16145b80610fb35750610f626129d6565b73ffffffffffffffffffffffffffffffffffffffff16600660009054906101000a900473ffffffffffffffffffffffffffffffffffffffff1673ffffffffffffffffffffffffffffffffffffffff16145b610ff2576040517f08c379a0000000000000000000000000000000000000000000000000000000008152600401610fe990613f00565b60405180910390fd5b610ffa610ea2565b1561103a576040517f08c379a000000000000000000000000000000000000000000000000000000000815260040161103190613ee0565b60405180910390fd5b6110448484612be7565b611083576040517f08c379a000000000000000000000000000000000000000000000000000000000815260040161107a90613f80565b60405180910390fd5b6000600560008673ffffffffffffffffffffffffffffffffffffffff1673ffffffffffffffffffffffffffffffffffffffff16815260200190815260200160002090508161111857606481805490501115611113576040517f08c379a000000000000000000000000000000000000000000000000000000000815260040161110a90613e80565b60405180910390fd5b611161565b600281805490501115611160576040517f08c379a000000000000000000000000000000000000000000000000000000000815260040161115790613f20565b60405180910390fd5b5b80604051806080016040528086815260200142815260200142815260200185815250908060018154018082558091505060019003906000526020600020906004020160009091909190915060008201518160000190805190602001906111c892919061350d565b506020820151816001015560408201518160020155606082015181600301555050600173__$ce39e7eba0e8c210ce522c13d692fbaca1$__63bc2b405c909187600560008a73ffffffffffffffffffffffffffffffffffffffff1673ffffffffffffffffffffffffffffffffffffffff168152602001908152602001600020805490506040518463ffffffff1660e01b815260040161126993929190614044565b60006040518083038186803b15801561128157600080fd5b505af4158015611295573d6000803e3d6000fd5b50505050428573ffffffffffffffffffffffffffffffffffffffff16847f527bf1adca2d71b9311a977c2df18af68aa18f9d5ed015995a2f2db6aeeb190560405160405180910390a4600960008154809291906112f1906143f1565b919050555082600a600082825461130891906141a1565b925050819055505050505050565b600760149054906101000a900460ff1681565b6113316129d6565b73ffffffffffffffffffffffffffffffffffffffff1661134f6116a9565b73ffffffffffffffffffffffffffffffffffffffff16146113a5576040517f08c379a000000000000000000000000000000000000000000000000000000000815260040161139c90613f60565b60405180910390fd5b600382829050146113eb576040517f08c379a00000000000000000000000000000000000000000000000000000000081526004016113e290613f40565b60405180910390fd5b8181600c91906113fc929190613593565b505050565b6114096129d6565b73ffffffffffffffffffffffffffffffffffffffff166114276116a9565b73ffffffffffffffffffffffffffffffffffffffff161461147d576040517f08c379a000000000000000000000000000000000000000000000000000000000815260040161147490613f60565b60405180910390fd5b80600660006101000a81548173ffffffffffffffffffffffffffffffffffffffff021916908373ffffffffffffffffffffffffffffffffffffffff16021790555050565b6114c96129d6565b73ffffffffffffffffffffffffffffffffffffffff166114e76116a9565b73ffffffffffffffffffffffffffffffffffffffff161461153d576040517f08c379a000000000000000000000000000000000000000000000000000000000815260040161153490613f60565b60405180910390fd5b6115476000612dc2565b565b6115516129d6565b73ffffffffffffffffffffffffffffffffffffffff1661156f6116a9565b73ffffffffffffffffffffffffffffffffffffffff16146115c5576040517f08c379a00000000000000000000000000000000000000000000000000000000081526004016115bc90613f60565b60405180910390fd5b80600760006101000a81548173ffffffffffffffffffffffffffffffffffffffff021916908373ffffffffffffffffffffffffffffffffffffffff16021790555050565b600a5481565b6116176129d6565b73ffffffffffffffffffffffffffffffffffffffff166116356116a9565b73ffffffffffffffffffffffffffffffffffffffff161461168b576040517f08c379a000000000000000000000000000000000000000000000000000000000815260040161168290613f60565b60405180910390fd5b80600760146101000a81548160ff021916908360ff16021790555050565b60008060009054906101000a900473ffffffffffffffffffffffffffffffffffffffff16905090565b6000808211611716576040517f08c379a000000000000000000000000000000000000000000000000000000000815260040161170d90613ec0565b60405180910390fd5b6000600560008573ffffffffffffffffffffffffffffffffffffffff1673ffffffffffffffffffffffffffffffffffffffff168152602001908152602001600020905060008180549050116117a0576040517f08c379a000000000000000000000000000000000000000000000000000000000815260040161179790613fe0565b60405180910390fd5b60006117ac82856129de565b90506117c081600201548260030154612e86565b9250505092915050565b600080600560008473ffffffffffffffffffffffffffffffffffffffff1673ffffffffffffffffffffffffffffffffffffffff16815260200190815260200160002090506000818054905090506000811161185a576040517f08c379a000000000000000000000000000000000000000000000000000000000815260040161185190613ec0565b60405180910390fd5b6000806000905060005b838110156118e7578481815481106118a5577f4e487b7100000000000000000000000000000000000000000000000000000000600052603260045260246000fd5b906000526020600020906004020192506118c783600201548460030154612e86565b826118d291906141a1565b915080806118df906143f1565b915050611864565b5080945050505050919050565b606081611900816106b1565b61193f576040517f08c379a000000000000000000000000000000000000000000000000000000000815260040161193690613fc0565b60405180910390fd5b6000600560008573ffffffffffffffffffffffffffffffffffffffff1673ffffffffffffffffffffffffffffffffffffffff168152602001908152602001600020805480602002602001604051908101604052809291908181526020016000905b82821015611a8257838290600052602060002090600402016040518060800160405290816000820180546119d39061438e565b80601f01602080910402602001604051908101604052809291908181526020018280546119ff9061438e565b8015611a4c5780601f10611a2157610100808354040283529160200191611a4c565b820191906000526020600020905b815481529060010190602001808311611a2f57829003601f168201915b505050505081526020016001820154815260200160028201548152602001600382015481525050815260200190600101906119a0565b505050509050600081519050611a9661363d565b6000611ae684600081518110611ad5577f4e487b7100000000000000000000000000000000000000000000000000000000600052603260045260246000fd5b602002602001015160200151612f56565b905060006040518060400160405280600181526020017f230000000000000000000000000000000000000000000000000000000000000081525090506000600190505b84811015611bb957858181518110611b6a577f4e487b7100000000000000000000000000000000000000000000000000000000600052603260045260246000fd5b602002602001015193508282611b838660200151612f56565b604051602001611b9593929190613dba565b60405160208183030381529060405292508080611bb1906143f1565b915050611b29565b50819650505050505050919050565b606081611bd4816106b1565b611c13576040517f08c379a0000000000000000000000000000000000000000000000000000000008152600401611c0a90613fc0565b60405180910390fd5b6000600560008573ffffffffffffffffffffffffffffffffffffffff1673ffffffffffffffffffffffffffffffffffffffff168152602001908152602001600020805480602002602001604051908101604052809291908181526020016000905b82821015611d565783829060005260206000209060040201604051806080016040529081600082018054611ca79061438e565b80601f0160208091040260200160405190810160405280929190818152602001828054611cd39061438e565b8015611d205780601f10611cf557610100808354040283529160200191611d20565b820191906000526020600020905b815481529060010190602001808311611d0357829003601f168201915b50505050508152602001600182015481526020016002820154815260200160038201548152505081526020019060010190611c74565b505050509050600081519050611d6a61363d565b6000611dba84600081518110611da9577f4e487b7100000000000000000000000000000000000000000000000000000000600052603260045260246000fd5b602002602001015160400151612f56565b905060006040518060400160405280600181526020017f230000000000000000000000000000000000000000000000000000000000000081525090506000600190505b84811015611e8d57858181518110611e3e577f4e487b7100000000000000000000000000000000000000000000000000000000600052603260045260246000fd5b602002602001015193508282611e578660400151612f56565b604051602001611e6993929190613dba565b60405160208183030381529060405292508080611e85906143f1565b915050611dfd565b50819650505050505050919050565b60095481565b611eaa6129d6565b73ffffffffffffffffffffffffffffffffffffffff16611ec86116a9565b73ffffffffffffffffffffffffffffffffffffffff161480611f3e5750611eed6129d6565b73ffffffffffffffffffffffffffffffffffffffff16600760009054906101000a900473ffffffffffffffffffffffffffffffffffffffff1673ffffffffffffffffffffffffffffffffffffffff16145b80611f9d5750611f4c6129d6565b73ffffffffffffffffffffffffffffffffffffffff16600660009054906101000a900473ffffffffffffffffffffffffffffffffffffffff1673ffffffffffffffffffffffffffffffffffffffff16145b611fdc576040517f08c379a0000000000000000000000000000000000000000000000000000000008152600401611fd390613f00565b60405180910390fd5b82611fe6816106b1565b612025576040517f08c379a000000000000000000000000000000000000000000000000000000000815260040161201c90613fc0565b60405180910390fd5b61202d610ea2565b1561206d576040517f08c379a000000000000000000000000000000000000000000000000000000000815260040161206490613ee0565b60405180910390fd5b600083116120b0576040517f08c379a00000000000000000000000000000000000000000000000000000000081526004016120a790613ec0565b60405180910390fd5b6000600560008673ffffffffffffffffffffffffffffffffffffffff1673ffffffffffffffffffffffffffffffffffffffff1681526020019081526020016000209050600081805490501161213a576040517f08c379a000000000000000000000000000000000000000000000000000000000815260040161213190613fe0565b60405180910390fd5b600061214682866129de565b90508381600301600082825461215c91906141a1565b92505081905550428160020181905550505050505050565b61217c6129d6565b73ffffffffffffffffffffffffffffffffffffffff1661219a6116a9565b73ffffffffffffffffffffffffffffffffffffffff16148061221057506121bf6129d6565b73ffffffffffffffffffffffffffffffffffffffff16600760009054906101000a900473ffffffffffffffffffffffffffffffffffffffff1673ffffffffffffffffffffffffffffffffffffffff16145b8061226f575061221e6129d6565b73ffffffffffffffffffffffffffffffffffffffff16600660009054906101000a900473ffffffffffffffffffffffffffffffffffffffff1673ffffffffffffffffffffffffffffffffffffffff16145b6122ae576040517f08c379a00000000000000000000000000000000000000000000000000000000081526004016122a590613f00565b60405180910390fd5b806122b8816106b1565b6122f7576040517f08c379a00000000000000000000000000000000000000000000000000000000081526004016122ee90613fc0565b60405180910390fd5b6122ff610ea2565b1561233f576040517f08c379a000000000000000000000000000000000000000000000000000000000815260040161233690613ee0565b60405180910390fd5b6000600560008473ffffffffffffffffffffffffffffffffffffffff1673ffffffffffffffffffffffffffffffffffffffff1681526020019081526020016000209050600081805490509050600081116123ce576040517f08c379a00000000000000000000000000000000000000000000000000000000081526004016123c590613ec0565b60405180910390fd5b600080600090505b8281101561244357838181548110612417577f4e487b7100000000000000000000000000000000000000000000000000000000600052603260045260246000fd5b90600052602060002090600402019150428260020181905550808061243b906143f1565b9150506123d6565b505050505050565b600b5481565b6124596129d6565b73ffffffffffffffffffffffffffffffffffffffff166124776116a9565b73ffffffffffffffffffffffffffffffffffffffff16146124cd576040517f08c379a00000000000000000000000000000000000000000000000000000000081526004016124c490613f60565b60405180910390fd5b60038282905014612513576040517f08c379a000000000000000000000000000000000000000000000000000000000815260040161250a90613f40565b60405180910390fd5b8181600d9190612524929190613593565b505050565b6000600854905090565b60085481565b606081612545816106b1565b612584576040517f08c379a000000000000000000000000000000000000000000000000000000000815260040161257b90613fc0565b60405180910390fd5b6000600560008573ffffffffffffffffffffffffffffffffffffffff1673ffffffffffffffffffffffffffffffffffffffff168152602001908152602001600020805480602002602001604051908101604052809291908181526020016000905b828210156126c757838290600052602060002090600402016040518060800160405290816000820180546126189061438e565b80601f01602080910402602001604051908101604052809291908181526020018280546126449061438e565b80156126915780601f1061266657610100808354040283529160200191612691565b820191906000526020600020905b81548152906001019060200180831161267457829003601f168201915b505050505081526020016001820154815260200160028201548152602001600382015481525050815260200190600101906125e5565b5050505090506000815190506126db61363d565b600083600081518110612717577f4e487b7100000000000000000000000000000000000000000000000000000000600052603260045260246000fd5b602002602001015160000151905060006040518060400160405280600181526020017f230000000000000000000000000000000000000000000000000000000000000081525090506000600190505b848110156127ee578581815181106127a7577f4e487b7100000000000000000000000000000000000000000000000000000000600052603260045260246000fd5b60200260200101519350828285600001516040516020016127ca93929190613dba565b604051602081830303815290604052925080806127e6906143f1565b915050612766565b50819650505050505050919050565b6128056129d6565b73ffffffffffffffffffffffffffffffffffffffff166128236116a9565b73ffffffffffffffffffffffffffffffffffffffff1614612879576040517f08c379a000000000000000000000000000000000000000000000000000000000815260040161287090613f60565b60405180910390fd5b600073ffffffffffffffffffffffffffffffffffffffff168173ffffffffffffffffffffffffffffffffffffffff1614156128e9576040517f08c379a00000000000000000000000000000000000000000000000000000000081526004016128e090613ea0565b60405180910390fd5b6128f281612dc2565b50565b6000600173__$ce39e7eba0e8c210ce522c13d692fbaca1$__63732a2ccf9091846040518363ffffffff1660e01b815260040161293392919061401b565b60206040518083038186803b15801561294b57600080fd5b505af415801561295f573d6000803e3d6000fd5b505050506040513d601f19601f8201168201806040525081019061298391906139b6565b9050919050565b600760009054906101000a900473ffffffffffffffffffffffffffffffffffffffff1681565b600660009054906101000a900473ffffffffffffffffffffffffffffffffffffffff1681565b600033905090565b6000808380549050905060008111612a2b576040517f08c379a0000000000000000000000000000000000000000000000000000000008152600401612a2290613fe0565b60405180910390fd5b600080612b4186805480602002602001604051908101604052809291908181526020016000905b82821015612b345783829060005260206000209060040201604051806080016040529081600082018054612a859061438e565b80601f0160208091040260200160405190810160405280929190818152602001828054612ab19061438e565b8015612afe5780601f10612ad357610100808354040283529160200191612afe565b820191906000526020600020905b815481529060010190602001808311612ae157829003601f168201915b50505050508152602001600182015481526020016002820154815260200160038201548152505081526020019060010190612a52565b505050506000858861312b565b90506000808212612b5457600192508190505b82612b94576040517f08c379a0000000000000000000000000000000000000000000000000000000008152600401612b8b90613fa0565b60405180910390fd5b868181548110612bcd577f4e487b7100000000000000000000000000000000000000000000000000000000600052603260045260246000fd5b906000526020600020906004020194505050505092915050565b600080600560008573ffffffffffffffffffffffffffffffffffffffff1673ffffffffffffffffffffffffffffffffffffffff168152602001908152602001600020805480602002602001604051908101604052809291908181526020016000905b82821015612d2b5783829060005260206000209060040201604051806080016040529081600082018054612c7c9061438e565b80601f0160208091040260200160405190810160405280929190818152602001828054612ca89061438e565b8015612cf55780601f10612cca57610100808354040283529160200191612cf5565b820191906000526020600020905b815481529060010190602001808311612cd857829003601f168201915b50505050508152602001600182015481526020016002820154815260200160038201548152505081526020019060010190612c49565b50505050905060005b8151811015612db5578380519060200120828281518110612d7e577f4e487b7100000000000000000000000000000000000000000000000000000000600052603260045260246000fd5b602002602001015160000151805190602001201415612da257600092505050612dbc565b8080612dad906143f1565b915050612d34565b5060019150505b92915050565b60008060009054906101000a900473ffffffffffffffffffffffffffffffffffffffff169050816000806101000a81548173ffffffffffffffffffffffffffffffffffffffff021916908373ffffffffffffffffffffffffffffffffffffffff1602179055508173ffffffffffffffffffffffffffffffffffffffff168173ffffffffffffffffffffffffffffffffffffffff167f8be0079c531659141344cd1fd0a4f28419497f9722a3daafe3b4186f6b6457e060405160405180910390a35050565b6000808342612e9591906142b9565b90506000612eb56064612ea784613264565b6134e190919063ffffffff16565b90506000612ef16064612ee3600760149054906101000a900460ff1660ff16886134f790919063ffffffff16565b6134e190919063ffffffff16565b905081612710603c85612f04919061422e565b612f2d6105a0612f1f612710876134f790919063ffffffff16565b6134e190919063ffffffff16565b612f37919061425f565b612f41919061422e565b612f4b919061425f565b935050505092915050565b60606000821415612f9e576040518060400160405280600181526020017f30000000000000000000000000000000000000000000000000000000000000008152509050613126565b600082905060005b60008214612fd0578080612fb9906143f1565b915050600a82612fc9919061422e565b9150612fa6565b60008167ffffffffffffffff811115613012577f4e487b7100000000000000000000000000000000000000000000000000000000600052604160045260246000fd5b6040519080825280601f01601f1916602001820160405280156130445781602001600182028036833780820191505090505b50905060008290505b6000861461311e5760018161306291906142b9565b90506000600a8088613074919061422e565b61307e919061425f565b8761308991906142b9565b603061309591906141f7565b905060008160f81b9050808484815181106130d9577f4e487b7100000000000000000000000000000000000000000000000000000000600052603260045260246000fd5b60200101907effffffffffffffffffffffffffffffffffffffffffffffffffffffffffffff1916908160001a905350600a88613115919061422e565b9750505061304d565b819450505050505b919050565b60008383106132385760006131556002868661314791906141a1565b6134e190919063ffffffff16565b905082868281518110613191577f4e487b7100000000000000000000000000000000000000000000000000000000600052603260045260246000fd5b60200260200101516020015114156131ac578091505061325c565b828682815181106131e6577f4e487b7100000000000000000000000000000000000000000000000000000000600052603260045260246000fd5b602002602001015160200151111561321857613210868660018461320a91906142b9565b8661312b565b91505061325c565b6132308660018361322991906141a1565b868661312b565b91505061325c565b7fffffffffffffffffffffffffffffffffffffffffffffffffffffffffffffffff90505b949350505050565b6000806201518083613276919061422e565b9050600d6002815481106132b3577f4e487b7100000000000000000000000000000000000000000000000000000000600052603260045260246000fd5b90600052602060002090602091828204019190069054906101000a900460ff1660ff16811061334257600c600281548110613317577f4e487b7100000000000000000000000000000000000000000000000000000000600052603260045260246000fd5b90600052602060002090602091828204019190069054906101000a900460ff1660ff169150506134dc565b600d60018154811061337d577f4e487b7100000000000000000000000000000000000000000000000000000000600052603260045260246000fd5b90600052602060002090602091828204019190069054906101000a900460ff1660ff16811061340c57600c6001815481106133e1577f4e487b7100000000000000000000000000000000000000000000000000000000600052603260045260246000fd5b90600052602060002090602091828204019190069054906101000a900460ff1660ff169150506134dc565b600d600081548110613447577f4e487b7100000000000000000000000000000000000000000000000000000000600052603260045260246000fd5b90600052602060002090602091828204019190069054906101000a900460ff1660ff1681106134d657600c6000815481106134ab577f4e487b7100000000000000000000000000000000000000000000000000000000600052603260045260246000fd5b90600052602060002090602091828204019190069054906101000a900460ff1660ff169150506134dc565b60649150505b919050565b600081836134ef919061422e565b905092915050565b60008183613505919061425f565b905092915050565b8280546135199061438e565b90600052602060002090601f01602090048101928261353b5760008555613582565b82601f1061355457805160ff1916838001178555613582565b82800160010185558215613582579182015b82811115613581578251825591602001919060010190613566565b5b50905061358f9190613665565b5090565b82805482825590600052602060002090601f0160209004810192821561362c5791602002820160005b838211156135fd57833560ff1683826101000a81548160ff021916908360ff16021790555092602001926001016020816000010492830192600103026135bc565b801561362a5782816101000a81549060ff02191690556001016020816000010492830192600103026135fd565b505b5090506136399190613665565b5090565b6040518060800160405280606081526020016000815260200160008152602001600081525090565b5b8082111561367e576000816000905550600101613666565b5090565b6000613695613690846140ff565b6140da565b9050828152602081018484840111156136ad57600080fd5b6136b884828561434c565b509392505050565b6000813590506136cf816147b1565b92915050565b6000815190506136e4816147b1565b92915050565b60008083601f8401126136fc57600080fd5b8235905067ffffffffffffffff81111561371557600080fd5b60208301915083602082028301111561372d57600080fd5b9250929050565b600081359050613743816147c8565b92915050565b600081519050613758816147df565b92915050565b600082601f83011261376f57600080fd5b813561377f848260208601613682565b91505092915050565b600081359050613797816147f6565b92915050565b6000815190506137ac816147f6565b92915050565b6000813590506137c18161480d565b92915050565b6000602082840312156137d957600080fd5b60006137e7848285016136c0565b91505092915050565b60006020828403121561380257600080fd5b6000613810848285016136d5565b91505092915050565b6000806000806080858703121561382f57600080fd5b600061383d878288016136c0565b945050602085013567ffffffffffffffff81111561385a57600080fd5b6138668782880161375e565b935050604061387787828801613788565b925050606061388887828801613734565b91505092959194509250565b600080604083850312156138a757600080fd5b60006138b5858286016136c0565b92505060206138c685828601613788565b9150509250929050565b6000806000606084860312156138e557600080fd5b60006138f3868287016136c0565b935050602061390486828701613788565b925050604061391586828701613788565b9150509250925092565b6000806020838503121561393257600080fd5b600083013567ffffffffffffffff81111561394c57600080fd5b613958858286016136ea565b92509250509250929050565b60006020828403121561397657600080fd5b600061398484828501613749565b91505092915050565b60006020828403121561399f57600080fd5b60006139ad84828501613788565b91505092915050565b6000602082840312156139c857600080fd5b60006139d68482850161379d565b91505092915050565b6000602082840312156139f157600080fd5b60006139ff848285016137b2565b91505092915050565b6000613a148383613d1b565b905092915050565b613a25816142ed565b82525050565b613a34816142ed565b82525050565b6000613a4582614140565b613a4f8185614163565b935083602082028501613a6185614130565b8060005b85811015613a9d5784840389528151613a7e8582613a08565b9450613a8983614156565b925060208a01995050600181019050613a65565b50829750879550505050505092915050565b613ab8816142ff565b82525050565b613ac78161430b565b82525050565b6000613ad88261414b565b613ae28185614174565b9350613af281856020860161435b565b613afb816144f6565b840191505092915050565b6000613b118261414b565b613b1b8185614185565b9350613b2b81856020860161435b565b613b34816144f6565b840191505092915050565b6000613b4a8261414b565b613b548185614196565b9350613b6481856020860161435b565b80840191505092915050565b6000613b7d601283614185565b9150613b8882614507565b602082019050919050565b6000613ba0602683614185565b9150613bab82614530565b604082019050919050565b6000613bc3602783614185565b9150613bce8261457f565b604082019050919050565b6000613be6601083614185565b9150613bf1826145ce565b602082019050919050565b6000613c09600983614185565b9150613c14826145f7565b602082019050919050565b6000613c2c602883614185565b9150613c3782614620565b604082019050919050565b6000613c4f600c83614185565b9150613c5a8261466f565b602082019050919050565b6000613c72602083614185565b9150613c7d82614698565b602082019050919050565b6000613c95601283614185565b9150613ca0826146c1565b602082019050919050565b6000613cb8602e83614185565b9150613cc3826146ea565b604082019050919050565b6000613cdb600983614185565b9150613ce682614739565b602082019050919050565b6000613cfe602f83614185565b9150613d0982614762565b604082019050919050565b8082525050565b60006080830160008301518482036000860152613d388282613acd565b9150506020830151613d4d6020860182613d7e565b506040830151613d606040860182613d7e565b506060830151613d736060860182613d7e565b508091505092915050565b613d8781614335565b82525050565b613d9681614335565b82525050565b613da581614335565b82525050565b613db48161433f565b82525050565b6000613dc68286613b3f565b9150613dd28285613b3f565b9150613dde8284613b3f565b9150819050949350505050565b6000602082019050613e006000830184613a1c565b92915050565b60006020820190508181036000830152613e208184613a3a565b905092915050565b6000602082019050613e3d6000830184613aaf565b92915050565b6000602082019050613e586000830184613abe565b92915050565b60006020820190508181036000830152613e788184613b06565b905092915050565b60006020820190508181036000830152613e9981613b70565b9050919050565b60006020820190508181036000830152613eb981613b93565b9050919050565b60006020820190508181036000830152613ed981613bb6565b9050919050565b60006020820190508181036000830152613ef981613bd9565b9050919050565b60006020820190508181036000830152613f1981613bfc565b9050919050565b60006020820190508181036000830152613f3981613c1f565b9050919050565b60006020820190508181036000830152613f5981613c42565b9050919050565b60006020820190508181036000830152613f7981613c65565b9050919050565b60006020820190508181036000830152613f9981613c88565b9050919050565b60006020820190508181036000830152613fb981613cab565b9050919050565b60006020820190508181036000830152613fd981613cce565b9050919050565b60006020820190508181036000830152613ff981613cf1565b9050919050565b60006020820190506140156000830184613d14565b92915050565b60006040820190506140306000830185613d14565b61403d6020830184613a2b565b9392505050565b60006060820190506140596000830186613d14565b6140666020830185613a2b565b6140736040830184613d9c565b949350505050565b60006040820190506140906000830185613d14565b61409d6020830184613d9c565b9392505050565b60006020820190506140b96000830184613d8d565b92915050565b60006020820190506140d46000830184613dab565b92915050565b60006140e46140f5565b90506140f082826143c0565b919050565b6000604051905090565b600067ffffffffffffffff82111561411a576141196144c7565b5b614123826144f6565b9050602081019050919050565b6000819050602082019050919050565b600081519050919050565b600081519050919050565b6000602082019050919050565b600082825260208201905092915050565b600082825260208201905092915050565b600082825260208201905092915050565b600081905092915050565b60006141ac82614335565b91506141b783614335565b9250827fffffffffffffffffffffffffffffffffffffffffffffffffffffffffffffffff038211156141ec576141eb61443a565b5b828201905092915050565b60006142028261433f565b915061420d8361433f565b92508260ff038211156142235761422261443a565b5b828201905092915050565b600061423982614335565b915061424483614335565b92508261425457614253614469565b5b828204905092915050565b600061426a82614335565b915061427583614335565b9250817fffffffffffffffffffffffffffffffffffffffffffffffffffffffffffffffff04831182151516156142ae576142ad61443a565b5b828202905092915050565b60006142c482614335565b91506142cf83614335565b9250828210156142e2576142e161443a565b5b828203905092915050565b60006142f882614315565b9050919050565b60008115159050919050565b6000819050919050565b600073ffffffffffffffffffffffffffffffffffffffff82169050919050565b6000819050919050565b600060ff82169050919050565b82818337600083830152505050565b60005b8381101561437957808201518184015260208101905061435e565b83811115614388576000848401525b50505050565b600060028204905060018216806143a657607f821691505b602082108114156143ba576143b9614498565b5b50919050565b6143c9826144f6565b810181811067ffffffffffffffff821117156143e8576143e76144c7565b5b80604052505050565b60006143fc82614335565b91507fffffffffffffffffffffffffffffffffffffffffffffffffffffffffffffffff82141561442f5761442e61443a565b5b600182019050919050565b7f4e487b7100000000000000000000000000000000000000000000000000000000600052601160045260246000fd5b7f4e487b7100000000000000000000000000000000000000000000000000000000600052601260045260246000fd5b7f4e487b7100000000000000000000000000000000000000000000000000000000600052602260045260246000fd5b7f4e487b7100000000000000000000000000000000000000000000000000000000600052604160045260246000fd5b6000601f19601f8301169050919050565b7f4d6178206e6f6465732065786365656465640000000000000000000000000000600082015250565b7f4f776e61626c653a206e6577206f776e657220697320746865207a65726f206160008201527f6464726573730000000000000000000000000000000000000000000000000000602082015250565b7f4e4f44453a204352454154494d45206d7573742062652068696768657220746860008201527f616e207a65726f00000000000000000000000000000000000000000000000000602082015250565b7f5061757361626c653a2070617573656400000000000000000000000000000000600082015250565b7f4e4f545f47554152440000000000000000000000000000000000000000000000600082015250565b7f50726553616c653a20596f752063616e277420627579206d6f7265207468616e60008201527f2032206e6f646573000000000000000000000000000000000000000000000000602082015250565b7f57726f6e67206c656e6774680000000000000000000000000000000000000000600082015250565b7f4f776e61626c653a2063616c6c6572206973206e6f7420746865206f776e6572600082015250565b7f4e616d65206e6f7420617661696c61626c650000000000000000000000000000600082015250565b7f4e4f4445205345415243483a204e6f204e4f444520466f756e6420776974682060008201527f7468697320626c6f636b74696d65000000000000000000000000000000000000602082015250565b7f4e4f545f4f574e45520000000000000000000000000000000000000000000000600082015250565b7f434153484f5554204552524f523a20596f7520646f6e27742068617665206e6f60008201527f64657320746f20636173682d6f75740000000000000000000000000000000000602082015250565b6147ba816142ed565b81146147c557600080fd5b50565b6147d1816142ff565b81146147dc57600080fd5b50565b6147e88161430b565b81146147f357600080fd5b50565b6147ff81614335565b811461480a57600080fd5b50565b6148168161433f565b811461482157600080fd5b5056fea26469706673582212202a2c8bcfb72dec4bb76bc160eeb9d34af188ad8d57ba04be9b8809732a83378f64736f6c63430008040033",
    "linkReferences": {
        "contracts/IterableMapping.sol": {
            "IterableMapping": [
                {
                    "length": 20,
                    "start": 2617
                },
                {
                    "length": 20,
                    "start": 3917
                },
                {
                    "length": 20,
                    "start": 4066
                },
                {
                    "length": 20,
                    "start": 4096
                },
                {
                    "length": 20,
                    "start": 4500
                },
                {
                    "length": 20,
                    "start": 5486
                },
                {
                    "length": 20,
                    "start": 11388
                }
            ]
        }
    },
    "deployedLinkReferences": {
        "contracts/IterableMapping.sol": {
            "IterableMapping": [
                {
                    "length": 20,
                    "start": 1720
                },
                {
                    "length": 20,
                    "start": 3020
                },
                {
                    "length": 20,
                    "start": 3169
                },
                {
                    "length": 20,
                    "start": 3199
                },
                {
                    "length": 20,
                    "start": 3603
                },
                {
                    "length": 20,
                    "start": 4589
                },
                {
                    "length": 20,
                    "start": 10491
                }
            ]
        }
    }
}